:040000006F006073BA
:1000040000000000000000004C0300004E0300004C
:1000140000000000340700000000000000000000A1
:100024003407000034070000000000000000000056
:100034003407000000000000340700000000000046
:1000440034070000340700003407000034070000C0
:1000540034070000340700003407000034070000B0
:10006400340700003407000034070000B603000022
:100074003407000034070000340700003407000090
:100084003407000034070000340700003407000080
:100094003407000034070000340700003407000070
:1000A400340700005E03000034070000340700003A
:1000B4003407000034070000340700003407000050
:1000C4003407000034070000340700003407000040
:1000D4003407000034070000340700003407000030
:1000E4003407000034070000340700003407000020
:0C00F4003407000034070000340700004F
:10010000397101436EC619A0397141536AC866CA74
:1001100062CC5ECE19A0397101535AD056D252D456
:100120004ED64AD826DA22DC06DE330161408282CE
:1001300041114AC026C222C406C68282B24D410184
:10014000024D924C224CB24B4101024B924A224A40
:10015000B2494101024992442244B24041018280A5
:100160003D432A876373C3029377F700BDEFADE584
:10017000937606FF3D8ABA960CC34CC30CC74CC796
:100180004107E36BD7FE11E28280B306C3408A06C3
:100190009702000096966780A6002307B700A30683
:1001A000B7002306B700A305B7002305B700A304D3
:1001B000B7002304B700A303B7002303B700A302CB
:1001C000B7002302B700A301B7002301B700A300C3
:1001D000B7002300B700828093F5F50F9396850052
:1001E000D58D93960501D58D61B79396270097021B
:1001F000000096968682E78086FA9680C1171D8F4A
:100200003E96E374C3F8A5B7EFF29FF2411185451E
:10021000114502C202C402C6EF00901E371501400C
:10022000C1474C00130505807C8202C6EF007001B7
:1002300041010DB7EFF2DFEF39711306C0028145BE
:100240004808393F854505453704024002C602C8C3
:10025000EF00301913058400EF00006DB72701404F
:100260009387C7443ECA9387A1803ECC9307001072
:100270003ED6930700403ED8930700024C088544C1
:100280003EDA13058400896726D03EDC02CE02D216
:1002900002D402DEEF0000739307B02168007C8671
:1002A00026C823070100EF00700D054613058400E2
:1002B0008945EF00E075854513058400EF00007463
:1002C000216149BDEFF2DFE601111306000281450D
:1002D0000A857935153FB93F854513050020EF00A4
:1002E00030122165EF00D00E37240140B7070E0011
:1002F0003EC68A85854713050440230AF10002C0E3
:1003000002C202C402C85D299D46054691451305F7
:100310000440B92B85451305044021238545130569
:100320000440C52913050440312393040440268565
:10033000392375FD13050440372401402923130494
:1003400004402285312375FD056129B501A0B70759
:10035000EFBE37E700E0938707083CC701A04111D3
:1003600022C6373401408545130504C0EF007020D4
:100370001DCD8545130504C0EF0030213725014010
:10038000854513050540C92983D741819306301F50
:100390008507C207C183239AF18083D7418163F81F
:1003A000F600239A018005472389E18055283244CD
:1003B0004101730020300945A52D21C50945B52D02
:1003C00003D7A180A5679387C7DCB387E70213052E
:1003D0004006B18323A6F18083A6C18089679387F5
:1003E000077163EAD70003A5C18093074006335520
:1003F000F5021375F50F952AB70700200547238CE2
:10040000E70073002030EFF2BFD237150140A1653D
:10041000130505C0EF00A07335BBEFF27FD1371590
:100420000140A165130505C0EF00A07325B3EFF2ED
:100430003FD041118545214502C202C402C6EF00EA
:10044000207CE1777C8237150140C1474C003EC6D5
:10045000130505C08D473EC4ED23C1374101DDB909
:10046000EFF21FCD37150140A165130505C0D92551
:1004700019C16537C5B1413FF5BFEFF27FCB0545E7
:10048000DD2DC122EF0030115D37A924253DF1207B
:1004900001A0EFF2FFC941118545114502C202C416
:1004A00002C6EF00E075A1477C8237150140E147A5
:1004B0003EC64C008D47130505803EC459234101BB
:1004C00051B9EFF2FFC601118545054502C202C4CC
:1004D0002316010002C802CA02CC02CEEF0020742B
:1004E00085679387F7E04C00370500403EC402C2A1
:1004F000EF00C074C167938707060C0837050040FA
:100500003EC8231C0100231B0100EF00C079A14558
:1005100037050040EF003004854537050040EF0007
:10052000F001056105B9EFF2BFC085679387F7E079
:10053000BE8563E3A700AA852398B180C205C18167
:1005400037050040EF00900231B1EFF27FBE8545E4
:1005500037050040EF00E07BF5BEEFF27FBD153FB1
:100560008D370145C937D537F5B6EFF27FBC130794
:100570004006930740066363A700AA8713F5F70FA9
:1005800085679387F7E03305F50293074006334507
:10059000F50242054181413F75BEB71702409843BD
:1005A000B706FFF01367170098C3D843758FD8C3F9
:1005B0009843B706F7FEFD16758F98C39843B706A4
:1005C000FCFFFD16758F98C3D843B70601FFFD16D3
:1005D000758FD8C337079F0098C7B746024003A757
:1005E00006801367070123A0E680D843B706C1FF42
:1005F000FD16D8C3D843D8C3D84313670740D8C320
:10060000D843758FD8C3D843B7063C00558FD8C39D
:100610009843B7060001558F98C398439316670017
:10062000E3DD06FED843B7160240719BD8C3D8431A
:1006300013672700D8C32147DC42B18BE39EE7FE56
:100640008280B7160240DC42370700201146B18B8A
:10065000130707016385C70021466388C702B717E0
:100660007A00938707201CC3B7170240DC439183AD
:1006700093F6F700B707002093870700B6979423F7
:100680001C43B3D7D7001CC38280DC42D4424166EE
:10069000C983BD8BF18E890745466393C700C9475F
:1006A00081EEB746024083A60680C18A89CEB7167E
:1006B0007A009386062021A8B7160240D4421396EA
:1006C000E600E35606FEB7163D0093860690B38714
:1006D000D70251BFEFF2DFA505650111854513056E
:1006E000058002CA02CC231E010002C602C8092BE3
:1006F00037340140930770043ECA4C089307703E9C
:10070000130504C03ECC230E01000D2B0546854584
:10071000130504C0192D930790127C8685475C87CA
:10072000680085473EC899298545130504C0D5232F
:1007300005610DB401A0970100209381A10D17510F
:1007400000201301218C170500001305A5679705EC
:1007500000209385258B1386818063FAC500832250
:10076000050023A0550011059105E3EAC5FE138598
:100770008180938501826377B500232005001105F0
:10078000E36DB5FEFD42739002BC8D4273904280D2
:100790009302800873900230970200009382C28611
:1007A00093E2320073905230EFF03FDF9702000087
:1007B0009382E2CC73901234730020305C4137078F
:1007C000F1E01307F7EF944D7D8F9C41D58FD44D09
:1007D000D58FD441A206D58FD98F5CC11C4537F780
:1007E000F1FF1307D77FD4457D8F9C49D58F944562
:1007F0008606D58FD98F1CC55C55370710FF7D172E
:100800007D8FDC29FD1793F7F70FD207D98F5CD5C1
:1008100082801C4589C593E717001CC58280F99B1F
:10082000EDBF1C4589C593E707101CC5828093F76F
:10083000F7EFE5BF1C4593E787001CC5828008459C
:100840000D81058982801C4593E747001CC5828085
:1008500008450981058982801C4591C537075000EC
:10086000D98F1CC582803707B0FF7D17F98FD5BFA0
:10087000A54763F7B7048D47138765FF3307F70272
:100880000328C5009D47B397E70093C7F7FFB3F769
:100890000701B396E600DD8E54C5994763E3C704AC
:1008A00095477D163306F6025859FD47B397C700A2
:1008B00093C7F7FFF98F3396C5005D8E50D98280BC
:1008C0000D473387E502032805019D47B397E700ED
:1008D00093C7F7FFB3F70701B396E600DD8E14C99F
:1008E0006DBFB14763E2C702954765163306F6024E
:1008F0001859FD47B397C70093C7F7FFF98F339691
:10090000C5005D8E10D9828095474D163306F602DC
:100910005855FD47B397C70093C7F7FFF98FB395B5
:10092000C500DD8D4CD582801C4141677917F98F58
:100930001CC1232005002322050023240500B7073E
:10094000024023260500138787006316E500D8437D
:100950001367F70001A81387C7016317E500D843A1
:100960001367070FD8C3B1A8138707036318E500FF
:10097000D8438566938606F0558FEDB713874704F5
:100980006315E500D843BD66C5BF138787056316A9
:10099000E500D843B7060F00C5B71387C70663162F
:1009A000E500D843B706F000C1BF138707086316F8
:1009B000E500D843B706000FC1B713874709E3081E
:1009C000E5F882801C4161773D0794517D8F9C45FD
:1009D000D58F9449D58FD449D58F944DD58FD44D8B
:1009E000D58FD451D58F9455D58FD98F1CC1DC4567
:1009F0005CC19C411CC5DC415CC582801C4189C531
:100A000093E717001CC1828041677917F98FDDBF1A
:100A10001C4101C6DD8D0CC1828093C5F5FFFD8DA3
:100A2000DDBFB70702409C437D8D3335A000828037
:100A3000EFF20FF0FD376FF0EFF1B7070240C8C3D8
:100A400082809C4513F7070113F8F70001C7D841CE
:100A50003368E80037270240145B3707000F758FB3
:100A60004DEB8546238BD180371701406315E50098
:100A70009A2135839AA18E2113F7F50F39C31841B6
:100A80008146854E3D4F930F800293028004214E94
:100A90003396DE00B3F8C500631116039398260061
:100AA00033131F011343F3FF3377E300B318180127
:100AB00033E7E8006397F70750C98506E39AC6FD58
:100AC00018C11307F00F6375B70454412146854ED2
:100AD0003D4F930F800293028004414EB398CE00A5
:100AE00033F715016392E802131726000117331339
:100AF000EF001343F3FFB376D3003317E800D98E2A
:100B00006395F703232A15010506E319C6FD54C1B1
:100B1000828037170140E310E5F603C7618121DFCA
:100B200081BFE39C57F810C949BFE39F57FC2328B6
:100B30001501D9BFB71701406316F50083C761815E
:100B400091C3B58148456D8D3335A0008280B717BC
:100B500001406316F50083C7618191C3B5810CC95B
:100B60008280B71701406316F50083C7618191C386
:100B7000B5814CC9828023ACA180828003A781818A
:100B8000854714216310F7021C31639CE7023C2166
:100B9000960793E707F837E700E093F7F70F3697E4
:100BA0002300F740054793D756003317D700544129
:100BB00089CE938707048A07B7E600E0B69798C303
:100BC0008280EDF33C219607F9B793870706E5B7D6
:100BD000B7160240DC4251777D17F98F5D8DC8C290
:100BE000828099C5371702405C4B5D8D48CB82806F
:100BF000B7170240D84B1345F5FF798DC8CB8280DB
:100C000099C5371702401C4F5D8D08CF8280B717FA
:100C10000240984F1345F5FF798D88CF828099C5A2
:100C2000371702405C4F5D8D48CF8280B717024076
:100C3000D84F1345F5FF798DC8CF82801E213737F5
:100C40000140130707C0C207C1836304E5023707E9
:100C500000406300E50213070740630CE500371707
:100C60000040930607806306D500130707C063168C
:100C7000E500BA2193F7F7F8D98FFA2193F7F7CF68
:100C8000C207C183D98F1EA1DE215EB59E211EB58C
:100C9000B7370140938707C06314F5009C251EB940
:100CA00085475EA982801A31FD77FD17F98F1EB145
:100CB0000358050256215E2D657792211307F7CF61
:100CC0007D8FF9772206FD17518FB3F70701B22107
:100CD00003D88500C2064207336606013206D18F6B
:100CE00037360140C207130606C0C1824183C18363
:100CF000631AC50071767D16F18ED2251A06D18E43
:100D0000C206C18256A15AADFA212310E5041EB1D4
:100D100082801E2189C593E717001EA18280C20729
:100D2000C183F99BC207C183CDBF5E2501C6DD8D9E
:100D30004EA5828093C5F5FFFD8DDDBF1E2189C5BF
:100D400093E707081EA18280C207C18393F7F7F7D4
:100D5000C207C183C5BF5A2DFD779387F77FF98FEF
:100D6000A205CD8FC207C1835EAD82802310B5047A
:100D700082801E294A25ED8F4205418189C76D8DEC
:100D80003335A00082800145828093C5F5FFC205FE
:100D9000C1810EA98280B707002083A707013717FA
:100DA0007A0013070720B3D7E70293F7F70F238FD3
:100DB000F1801307803EB387E702239EF180828093
:100DC00000000000000000000102030406070809FB
:080DD00000449508000000003A
:00000001FF
